{
  "_format": "hh-sol-artifact-1",
  "contractName": "PredictionMarket",
  "sourceName": "contracts/PredictionMarket.sol",
  "abi": [
    {
      "inputs": [
        {
          "internalType": "address",
          "name": "_zetaToken",
          "type": "address"
        }
      ],
      "stateMutability": "nonpayable",
      "type": "constructor"
    },
    {
      "inputs": [
        {
          "internalType": "address",
          "name": "owner",
          "type": "address"
        }
      ],
      "name": "OwnableInvalidOwner",
      "type": "error"
    },
    {
      "inputs": [
        {
          "internalType": "address",
          "name": "account",
          "type": "address"
        }
      ],
      "name": "OwnableUnauthorizedAccount",
      "type": "error"
    },
    {
      "anonymous": false,
      "inputs": [
        {
          "indexed": false,
          "internalType": "uint256",
          "name": "marketId",
          "type": "uint256"
        },
        {
          "indexed": false,
          "internalType": "address",
          "name": "user",
          "type": "address"
        },
        {
          "indexed": false,
          "internalType": "uint256",
          "name": "amount",
          "type": "uint256"
        },
        {
          "indexed": false,
          "internalType": "uint256",
          "name": "outcomeIndex",
          "type": "uint256"
        }
      ],
      "name": "BetPlaced",
      "type": "event"
    },
    {
      "anonymous": false,
      "inputs": [
        {
          "indexed": false,
          "internalType": "uint256",
          "name": "marketId",
          "type": "uint256"
        },
        {
          "indexed": false,
          "internalType": "string",
          "name": "question",
          "type": "string"
        },
        {
          "indexed": false,
          "internalType": "string[]",
          "name": "outcomes",
          "type": "string[]"
        },
        {
          "indexed": false,
          "internalType": "uint256",
          "name": "resolutionTime",
          "type": "uint256"
        }
      ],
      "name": "MarketCreated",
      "type": "event"
    },
    {
      "anonymous": false,
      "inputs": [
        {
          "indexed": false,
          "internalType": "uint256",
          "name": "marketId",
          "type": "uint256"
        },
        {
          "indexed": false,
          "internalType": "uint256",
          "name": "winningOutcome",
          "type": "uint256"
        }
      ],
      "name": "MarketResolved",
      "type": "event"
    },
    {
      "anonymous": false,
      "inputs": [
        {
          "indexed": true,
          "internalType": "address",
          "name": "previousOwner",
          "type": "address"
        },
        {
          "indexed": true,
          "internalType": "address",
          "name": "newOwner",
          "type": "address"
        }
      ],
      "name": "OwnershipTransferred",
      "type": "event"
    },
    {
      "inputs": [],
      "name": "BET_FEE",
      "outputs": [
        {
          "internalType": "uint256",
          "name": "",
          "type": "uint256"
        }
      ],
      "stateMutability": "view",
      "type": "function"
    },
    {
      "inputs": [
        {
          "internalType": "string",
          "name": "_question",
          "type": "string"
        },
        {
          "internalType": "string[]",
          "name": "_outcomes",
          "type": "string[]"
        },
        {
          "internalType": "uint256",
          "name": "_resolutionTime",
          "type": "uint256"
        }
      ],
      "name": "createMarket",
      "outputs": [],
      "stateMutability": "nonpayable",
      "type": "function"
    },
    {
      "inputs": [
        {
          "internalType": "uint256",
          "name": "_marketId",
          "type": "uint256"
        }
      ],
      "name": "getOutcomesLength",
      "outputs": [
        {
          "internalType": "uint256",
          "name": "",
          "type": "uint256"
        }
      ],
      "stateMutability": "view",
      "type": "function"
    },
    {
      "inputs": [
        {
          "internalType": "uint256",
          "name": "",
          "type": "uint256"
        },
        {
          "internalType": "uint256",
          "name": "",
          "type": "uint256"
        }
      ],
      "name": "marketBets",
      "outputs": [
        {
          "internalType": "address",
          "name": "user",
          "type": "address"
        },
        {
          "internalType": "uint256",
          "name": "amount",
          "type": "uint256"
        },
        {
          "internalType": "uint256",
          "name": "outcomeIndex",
          "type": "uint256"
        }
      ],
      "stateMutability": "view",
      "type": "function"
    },
    {
      "inputs": [],
      "name": "marketCount",
      "outputs": [
        {
          "internalType": "uint256",
          "name": "",
          "type": "uint256"
        }
      ],
      "stateMutability": "view",
      "type": "function"
    },
    {
      "inputs": [
        {
          "internalType": "uint256",
          "name": "",
          "type": "uint256"
        }
      ],
      "name": "markets",
      "outputs": [
        {
          "internalType": "string",
          "name": "question",
          "type": "string"
        },
        {
          "internalType": "uint256",
          "name": "resolutionTime",
          "type": "uint256"
        },
        {
          "internalType": "bool",
          "name": "resolved",
          "type": "bool"
        },
        {
          "internalType": "uint256",
          "name": "winningOutcome",
          "type": "uint256"
        }
      ],
      "stateMutability": "view",
      "type": "function"
    },
    {
      "inputs": [],
      "name": "owner",
      "outputs": [
        {
          "internalType": "address",
          "name": "",
          "type": "address"
        }
      ],
      "stateMutability": "view",
      "type": "function"
    },
    {
      "inputs": [
        {
          "internalType": "uint256",
          "name": "_marketId",
          "type": "uint256"
        },
        {
          "internalType": "uint256",
          "name": "_outcomeIndex",
          "type": "uint256"
        },
        {
          "internalType": "uint256",
          "name": "_amount",
          "type": "uint256"
        }
      ],
      "name": "placeBet",
      "outputs": [],
      "stateMutability": "nonpayable",
      "type": "function"
    },
    {
      "inputs": [],
      "name": "renounceOwnership",
      "outputs": [],
      "stateMutability": "nonpayable",
      "type": "function"
    },
    {
      "inputs": [
        {
          "internalType": "uint256",
          "name": "_marketId",
          "type": "uint256"
        },
        {
          "internalType": "uint256",
          "name": "_winningOutcome",
          "type": "uint256"
        }
      ],
      "name": "resolveMarket",
      "outputs": [],
      "stateMutability": "nonpayable",
      "type": "function"
    },
    {
      "inputs": [
        {
          "internalType": "address",
          "name": "newOwner",
          "type": "address"
        }
      ],
      "name": "transferOwnership",
      "outputs": [],
      "stateMutability": "nonpayable",
      "type": "function"
    },
    {
      "inputs": [],
      "name": "zetaToken",
      "outputs": [
        {
          "internalType": "contract IERC20",
          "name": "",
          "type": "address"
        }
      ],
      "stateMutability": "view",
      "type": "function"
    }
  ],
  "bytecode": "0x608060405234801561001057600080fd5b506040516124cb3803806124cb83398181016040528101906100329190610223565b33600073ffffffffffffffffffffffffffffffffffffffff168173ffffffffffffffffffffffffffffffffffffffff16036100a55760006040517f1e4fbdf700000000000000000000000000000000000000000000000000000000815260040161009c919061025f565b60405180910390fd5b6100b4816100fc60201b60201c565b5080600160006101000a81548173ffffffffffffffffffffffffffffffffffffffff021916908373ffffffffffffffffffffffffffffffffffffffff1602179055505061027a565b60008060009054906101000a900473ffffffffffffffffffffffffffffffffffffffff169050816000806101000a81548173ffffffffffffffffffffffffffffffffffffffff021916908373ffffffffffffffffffffffffffffffffffffffff1602179055508173ffffffffffffffffffffffffffffffffffffffff168173ffffffffffffffffffffffffffffffffffffffff167f8be0079c531659141344cd1fd0a4f28419497f9722a3daafe3b4186f6b6457e060405160405180910390a35050565b600080fd5b600073ffffffffffffffffffffffffffffffffffffffff82169050919050565b60006101f0826101c5565b9050919050565b610200816101e5565b811461020b57600080fd5b50565b60008151905061021d816101f7565b92915050565b600060208284031215610239576102386101c0565b5b60006102478482850161020e565b91505092915050565b610259816101e5565b82525050565b60006020820190506102746000830184610250565b92915050565b612242806102896000396000f3fe608060405234801561001057600080fd5b50600436106100b45760003560e01c8063ec97908211610071578063ec9790821461016a578063f0c68c1e14610188578063f2e55021146101b8578063f2fde38b146101ea578063f6c9eda014610206578063fbc529cb14610224576100b4565b806321e093b1146100b957806360557333146100d7578063715018a6146100f35780638da5cb5b146100fd578063b1283e771461011b578063e71c96971461014e575b600080fd5b6100c1610240565b6040516100ce9190611166565b60405180910390f35b6100f160048036038101906100ec91906111cb565b610266565b005b6100fb610468565b005b61010561047c565b604051610112919061122c565b60405180910390f35b61013560048036038101906101309190611247565b6104a5565b604051610145949392919061132e565b60405180910390f35b6101686004803603810190610163919061137a565b61056a565b005b61017261096e565b60405161017f91906113cd565b60405180910390f35b6101a2600480360381019061019d9190611247565b610974565b6040516101af91906113cd565b60405180910390f35b6101d260048036038101906101cd91906111cb565b6109e7565b6040516101e1939291906113e8565b60405180910390f35b61020460048036038101906101ff919061144b565b610a4e565b005b61020e610ad4565b60405161021b91906113cd565b60405180910390f35b61023e60048036038101906102399190611693565b610adf565b005b600160009054906101000a900473ffffffffffffffffffffffffffffffffffffffff1681565b61026e610c74565b60008211801561028057506004548211155b6102bf576040517f08c379a00000000000000000000000000000000000000000000000000000000081526004016102b69061176a565b60405180910390fd5b6002600083815260200190815260200160002060020154421015610318576040517f08c379a000000000000000000000000000000000000000000000000000000000815260040161030f906117d6565b60405180910390fd5b6002600083815260200190815260200160002060030160009054906101000a900460ff161561037c576040517f08c379a000000000000000000000000000000000000000000000000000000000815260040161037390611842565b60405180910390fd5b600260008381526020019081526020016000206001018054905081106103d7576040517f08c379a00000000000000000000000000000000000000000000000000000000081526004016103ce906118ae565b60405180910390fd5b60016002600084815260200190815260200160002060030160006101000a81548160ff02191690831515021790555080600260008481526020019081526020016000206004018190555061042b8282610cfb565b7f6dfc24f0f2fb42e49fb4fa3ffa8abb148cab908a1fb8335b3f128a08b2594af1828260405161045c9291906118ce565b60405180910390a15050565b610470610c74565b61047a6000610f41565b565b60008060009054906101000a900473ffffffffffffffffffffffffffffffffffffffff16905090565b60026020528060005260406000206000915090508060000180546104c890611926565b80601f01602080910402602001604051908101604052809291908181526020018280546104f490611926565b80156105415780601f1061051657610100808354040283529160200191610541565b820191906000526020600020905b81548152906001019060200180831161052457829003601f168201915b5050505050908060020154908060030160009054906101000a900460ff16908060040154905084565b60008311801561057c57506004548311155b6105bb576040517f08c379a00000000000000000000000000000000000000000000000000000000081526004016105b29061176a565b60405180910390fd5b600081116105fe576040517f08c379a00000000000000000000000000000000000000000000000000000000081526004016105f5906119c9565b60405180910390fd5b60026000848152602001908152602001600020600201544210610656576040517f08c379a000000000000000000000000000000000000000000000000000000000815260040161064d90611a35565b60405180910390fd5b6002600084815260200190815260200160002060030160009054906101000a900460ff16156106ba576040517f08c379a00000000000000000000000000000000000000000000000000000000081526004016106b190611842565b60405180910390fd5b60026000848152602001908152602001600020600101805490508210610715576040517f08c379a000000000000000000000000000000000000000000000000000000000815260040161070c90611aa1565b60405180910390fd5b600160009054906101000a900473ffffffffffffffffffffffffffffffffffffffff1673ffffffffffffffffffffffffffffffffffffffff166323b872dd3330662386f26fc100006040518463ffffffff1660e01b815260040161077b93929190611ac1565b6020604051808303816000875af115801561079a573d6000803e3d6000fd5b505050506040513d601f19601f820116820180604052508101906107be9190611b24565b50600160009054906101000a900473ffffffffffffffffffffffffffffffffffffffff1673ffffffffffffffffffffffffffffffffffffffff166323b872dd3330846040518463ffffffff1660e01b815260040161081e93929190611ac1565b6020604051808303816000875af115801561083d573d6000803e3d6000fd5b505050506040513d601f19601f820116820180604052508101906108619190611b24565b506003600084815260200190815260200160002060405180606001604052803373ffffffffffffffffffffffffffffffffffffffff16815260200183815260200184815250908060018154018082558091505060019003906000526020600020906003020160009091909190915060008201518160000160006101000a81548173ffffffffffffffffffffffffffffffffffffffff021916908373ffffffffffffffffffffffffffffffffffffffff160217905550602082015181600101556040820151816002015550507f1b8a9031cb9351278d70a994f81536e9e08c91162e64f92b2fe4766fb7a891b4833383856040516109619493929190611b51565b60405180910390a1505050565b60045481565b6000808211801561098757506004548211155b6109c6576040517f08c379a00000000000000000000000000000000000000000000000000000000081526004016109bd9061176a565b60405180910390fd5b60026000838152602001908152602001600020600101805490509050919050565b60036020528160005260406000208181548110610a0357600080fd5b9060005260206000209060030201600091509150508060000160009054906101000a900473ffffffffffffffffffffffffffffffffffffffff16908060010154908060020154905083565b610a56610c74565b600073ffffffffffffffffffffffffffffffffffffffff168173ffffffffffffffffffffffffffffffffffffffff1603610ac85760006040517f1e4fbdf7000000000000000000000000000000000000000000000000000000008152600401610abf919061122c565b60405180910390fd5b610ad181610f41565b50565b662386f26fc1000081565b610ae7610c74565b428111610b29576040517f08c379a0000000000000000000000000000000000000000000000000000000008152600401610b2090611c08565b60405180910390fd5b600282511015610b6e576040517f08c379a0000000000000000000000000000000000000000000000000000000008152600401610b6590611c74565b60405180910390fd5b60046000815480929190610b8190611cc3565b91905055506040518060a0016040528084815260200183815260200182815260200160001515815260200160008152506002600060045481526020019081526020016000206000820151816000019081610bdb9190611ead565b506020820151816001019080519060200190610bf892919061100d565b506040820151816002015560608201518160030160006101000a81548160ff021916908315150217905550608082015181600401559050507fdb6ae5c511cd814e8b6d7dd1f64d32f3bd488e4361486cdcfa2e2debaeddca87600454848484604051610c67949392919061208b565b60405180910390a1505050565b610c7c611005565b73ffffffffffffffffffffffffffffffffffffffff16610c9a61047c565b73ffffffffffffffffffffffffffffffffffffffff1614610cf957610cbd611005565b6040517f118cdaa7000000000000000000000000000000000000000000000000000000008152600401610cf0919061122c565b60405180910390fd5b565b600060036000848152602001908152602001600020905060008060005b8380549050811015610dc157838181548110610d3757610d366120de565b5b90600052602060002090600302016001015483610d54919061210d565b925084848281548110610d6a57610d696120de565b5b90600052602060002090600302016002015403610db457838181548110610d9457610d936120de565b5b90600052602060002090600302016001015482610db1919061210d565b91505b8080600101915050610d18565b506000811115610f3a5760005b8380549050811015610f385784848281548110610dee57610ded6120de565b5b90600052602060002090600302016002015403610f2b5760008284868481548110610e1c57610e1b6120de565b5b906000526020600020906003020160010154610e389190612141565b610e4291906121b2565b9050600160009054906101000a900473ffffffffffffffffffffffffffffffffffffffff1673ffffffffffffffffffffffffffffffffffffffff1663a9059cbb868481548110610e9557610e946120de565b5b906000526020600020906003020160000160009054906101000a900473ffffffffffffffffffffffffffffffffffffffff16836040518363ffffffff1660e01b8152600401610ee59291906121e3565b6020604051808303816000875af1158015610f04573d6000803e3d6000fd5b505050506040513d601f19601f82011682018060405250810190610f289190611b24565b50505b8080600101915050610dce565b505b5050505050565b60008060009054906101000a900473ffffffffffffffffffffffffffffffffffffffff169050816000806101000a81548173ffffffffffffffffffffffffffffffffffffffff021916908373ffffffffffffffffffffffffffffffffffffffff1602179055508173ffffffffffffffffffffffffffffffffffffffff168173ffffffffffffffffffffffffffffffffffffffff167f8be0079c531659141344cd1fd0a4f28419497f9722a3daafe3b4186f6b6457e060405160405180910390a35050565b600033905090565b828054828255906000526020600020908101928215611055579160200282015b828111156110545782518290816110449190611ead565b509160200191906001019061102d565b5b5090506110629190611066565b5090565b5b80821115611086576000818161107d919061108a565b50600101611067565b5090565b50805461109690611926565b6000825580601f106110a857506110c7565b601f0160209004906000526020600020908101906110c691906110ca565b5b50565b5b808211156110e35760008160009055506001016110cb565b5090565b600073ffffffffffffffffffffffffffffffffffffffff82169050919050565b6000819050919050565b600061112c611127611122846110e7565b611107565b6110e7565b9050919050565b600061113e82611111565b9050919050565b600061115082611133565b9050919050565b61116081611145565b82525050565b600060208201905061117b6000830184611157565b92915050565b6000604051905090565b600080fd5b600080fd5b6000819050919050565b6111a881611195565b81146111b357600080fd5b50565b6000813590506111c58161119f565b92915050565b600080604083850312156111e2576111e161118b565b5b60006111f0858286016111b6565b9250506020611201858286016111b6565b9150509250929050565b6000611216826110e7565b9050919050565b6112268161120b565b82525050565b6000602082019050611241600083018461121d565b92915050565b60006020828403121561125d5761125c61118b565b5b600061126b848285016111b6565b91505092915050565b600081519050919050565b600082825260208201905092915050565b60005b838110156112ae578082015181840152602081019050611293565b60008484015250505050565b6000601f19601f8301169050919050565b60006112d682611274565b6112e0818561127f565b93506112f0818560208601611290565b6112f9816112ba565b840191505092915050565b61130d81611195565b82525050565b60008115159050919050565b61132881611313565b82525050565b6000608082019050818103600083015261134881876112cb565b90506113576020830186611304565b611364604083018561131f565b6113716060830184611304565b95945050505050565b6000806000606084860312156113935761139261118b565b5b60006113a1868287016111b6565b93505060206113b2868287016111b6565b92505060406113c3868287016111b6565b9150509250925092565b60006020820190506113e26000830184611304565b92915050565b60006060820190506113fd600083018661121d565b61140a6020830185611304565b6114176040830184611304565b949350505050565b6114288161120b565b811461143357600080fd5b50565b6000813590506114458161141f565b92915050565b6000602082840312156114615761146061118b565b5b600061146f84828501611436565b91505092915050565b600080fd5b600080fd5b7f4e487b7100000000000000000000000000000000000000000000000000000000600052604160045260246000fd5b6114ba826112ba565b810181811067ffffffffffffffff821117156114d9576114d8611482565b5b80604052505050565b60006114ec611181565b90506114f882826114b1565b919050565b600067ffffffffffffffff82111561151857611517611482565b5b611521826112ba565b9050602081019050919050565b82818337600083830152505050565b600061155061154b846114fd565b6114e2565b90508281526020810184848401111561156c5761156b61147d565b5b61157784828561152e565b509392505050565b600082601f83011261159457611593611478565b5b81356115a484826020860161153d565b91505092915050565b600067ffffffffffffffff8211156115c8576115c7611482565b5b602082029050602081019050919050565b600080fd5b60006115f16115ec846115ad565b6114e2565b90508083825260208201905060208402830185811115611614576116136115d9565b5b835b8181101561165b57803567ffffffffffffffff81111561163957611638611478565b5b808601611646898261157f565b85526020850194505050602081019050611616565b5050509392505050565b600082601f83011261167a57611679611478565b5b813561168a8482602086016115de565b91505092915050565b6000806000606084860312156116ac576116ab61118b565b5b600084013567ffffffffffffffff8111156116ca576116c9611190565b5b6116d68682870161157f565b935050602084013567ffffffffffffffff8111156116f7576116f6611190565b5b61170386828701611665565b9250506040611714868287016111b6565b9150509250925092565b7f496e76616c6964206d61726b6574204944000000000000000000000000000000600082015250565b600061175460118361127f565b915061175f8261171e565b602082019050919050565b6000602082019050818103600083015261178381611747565b9050919050565b7f546f6f206561726c7920746f207265736f6c7665000000000000000000000000600082015250565b60006117c060148361127f565b91506117cb8261178a565b602082019050919050565b600060208201905081810360008301526117ef816117b3565b9050919050565b7f4d61726b657420616c7265616479207265736f6c766564000000000000000000600082015250565b600061182c60178361127f565b9150611837826117f6565b602082019050919050565b6000602082019050818103600083015261185b8161181f565b9050919050565b7f496e76616c69642077696e6e696e67206f7574636f6d65000000000000000000600082015250565b600061189860178361127f565b91506118a382611862565b602082019050919050565b600060208201905081810360008301526118c78161188b565b9050919050565b60006040820190506118e36000830185611304565b6118f06020830184611304565b9392505050565b7f4e487b7100000000000000000000000000000000000000000000000000000000600052602260045260246000fd5b6000600282049050600182168061193e57607f821691505b602082108103611951576119506118f7565b5b50919050565b7f42657420616d6f756e74206d7573742062652067726561746572207468616e2060008201527f7a65726f00000000000000000000000000000000000000000000000000000000602082015250565b60006119b360248361127f565b91506119be82611957565b604082019050919050565b600060208201905081810360008301526119e2816119a6565b9050919050565b7f42657474696e6720706572696f642068617320656e6465640000000000000000600082015250565b6000611a1f60188361127f565b9150611a2a826119e9565b602082019050919050565b60006020820190508181036000830152611a4e81611a12565b9050919050565b7f496e76616c6964206f7574636f6d6520696e6465780000000000000000000000600082015250565b6000611a8b60158361127f565b9150611a9682611a55565b602082019050919050565b60006020820190508181036000830152611aba81611a7e565b9050919050565b6000606082019050611ad6600083018661121d565b611ae3602083018561121d565b611af06040830184611304565b949350505050565b611b0181611313565b8114611b0c57600080fd5b50565b600081519050611b1e81611af8565b92915050565b600060208284031215611b3a57611b3961118b565b5b6000611b4884828501611b0f565b91505092915050565b6000608082019050611b666000830187611304565b611b73602083018661121d565b611b806040830185611304565b611b8d6060830184611304565b95945050505050565b7f5265736f6c7574696f6e2074696d65206d75737420626520696e20746865206660008201527f7574757265000000000000000000000000000000000000000000000000000000602082015250565b6000611bf260258361127f565b9150611bfd82611b96565b604082019050919050565b60006020820190508181036000830152611c2181611be5565b9050919050565b7f4174206c656173742074776f206f7574636f6d65732072657175697265640000600082015250565b6000611c5e601e8361127f565b9150611c6982611c28565b602082019050919050565b60006020820190508181036000830152611c8d81611c51565b9050919050565b7f4e487b7100000000000000000000000000000000000000000000000000000000600052601160045260246000fd5b6000611cce82611195565b91507fffffffffffffffffffffffffffffffffffffffffffffffffffffffffffffffff8203611d0057611cff611c94565b5b600182019050919050565b60008190508160005260206000209050919050565b60006020601f8301049050919050565b600082821b905092915050565b600060088302611d6d7fffffffffffffffffffffffffffffffffffffffffffffffffffffffffffffffff82611d30565b611d778683611d30565b95508019841693508086168417925050509392505050565b6000611daa611da5611da084611195565b611107565b611195565b9050919050565b6000819050919050565b611dc483611d8f565b611dd8611dd082611db1565b848454611d3d565b825550505050565b600090565b611ded611de0565b611df8818484611dbb565b505050565b5b81811015611e1c57611e11600082611de5565b600181019050611dfe565b5050565b601f821115611e6157611e3281611d0b565b611e3b84611d20565b81016020851015611e4a578190505b611e5e611e5685611d20565b830182611dfd565b50505b505050565b600082821c905092915050565b6000611e8460001984600802611e66565b1980831691505092915050565b6000611e9d8383611e73565b9150826002028217905092915050565b611eb682611274565b67ffffffffffffffff811115611ecf57611ece611482565b5b611ed98254611926565b611ee4828285611e20565b600060209050601f831160018114611f175760008415611f05578287015190505b611f0f8582611e91565b865550611f77565b601f198416611f2586611d0b565b60005b82811015611f4d57848901518255600182019150602085019450602081019050611f28565b86831015611f6a5784890151611f66601f891682611e73565b8355505b6001600288020188555050505b505050505050565b600081519050919050565b600082825260208201905092915050565b6000819050602082019050919050565b600082825260208201905092915050565b6000611fc782611274565b611fd18185611fab565b9350611fe1818560208601611290565b611fea816112ba565b840191505092915050565b60006120018383611fbc565b905092915050565b6000602082019050919050565b600061202182611f7f565b61202b8185611f8a565b93508360208202850161203d85611f9b565b8060005b85811015612079578484038952815161205a8582611ff5565b945061206583612009565b925060208a01995050600181019050612041565b50829750879550505050505092915050565b60006080820190506120a06000830187611304565b81810360208301526120b281866112cb565b905081810360408301526120c68185612016565b90506120d56060830184611304565b95945050505050565b7f4e487b7100000000000000000000000000000000000000000000000000000000600052603260045260246000fd5b600061211882611195565b915061212383611195565b925082820190508082111561213b5761213a611c94565b5b92915050565b600061214c82611195565b915061215783611195565b925082820261216581611195565b9150828204841483151761217c5761217b611c94565b5b5092915050565b7f4e487b7100000000000000000000000000000000000000000000000000000000600052601260045260246000fd5b60006121bd82611195565b91506121c883611195565b9250826121d8576121d7612183565b5b828204905092915050565b60006040820190506121f8600083018561121d565b6122056020830184611304565b939250505056fea2646970667358221220fffa1df9208a7848c762c66a3d78019b7af121f7e1fb7b75490400f079be6ec064736f6c634300081c0033",
  "linkReferences": {},
  "deployedLinkReferences": {}
}